{
  "contractName": "CharityNft",
  "abi": [
    {
      "inputs": [
        {
          "internalType": "address payable",
          "name": "_charityAddress",
          "type": "address"
        }
      ],
      "stateMutability": "nonpayable",
      "type": "constructor"
    },
    {
      "anonymous": false,
      "inputs": [
        {
          "indexed": true,
          "internalType": "address",
          "name": "owner",
          "type": "address"
        },
        {
          "indexed": true,
          "internalType": "address",
          "name": "approved",
          "type": "address"
        },
        {
          "indexed": true,
          "internalType": "uint256",
          "name": "tokenId",
          "type": "uint256"
        }
      ],
      "name": "Approval",
      "type": "event"
    },
    {
      "anonymous": false,
      "inputs": [
        {
          "indexed": true,
          "internalType": "address",
          "name": "owner",
          "type": "address"
        },
        {
          "indexed": true,
          "internalType": "address",
          "name": "operator",
          "type": "address"
        },
        {
          "indexed": false,
          "internalType": "bool",
          "name": "approved",
          "type": "bool"
        }
      ],
      "name": "ApprovalForAll",
      "type": "event"
    },
    {
      "anonymous": false,
      "inputs": [
        {
          "indexed": true,
          "internalType": "address",
          "name": "from",
          "type": "address"
        },
        {
          "indexed": true,
          "internalType": "address",
          "name": "to",
          "type": "address"
        },
        {
          "indexed": true,
          "internalType": "uint256",
          "name": "tokenId",
          "type": "uint256"
        }
      ],
      "name": "Transfer",
      "type": "event"
    },
    {
      "inputs": [
        {
          "internalType": "address",
          "name": "to",
          "type": "address"
        },
        {
          "internalType": "uint256",
          "name": "tokenId",
          "type": "uint256"
        }
      ],
      "name": "approve",
      "outputs": [],
      "stateMutability": "nonpayable",
      "type": "function"
    },
    {
      "inputs": [
        {
          "internalType": "address",
          "name": "",
          "type": "address"
        }
      ],
      "name": "balance",
      "outputs": [
        {
          "internalType": "uint256",
          "name": "",
          "type": "uint256"
        }
      ],
      "stateMutability": "view",
      "type": "function"
    },
    {
      "inputs": [
        {
          "internalType": "address",
          "name": "owner",
          "type": "address"
        }
      ],
      "name": "balanceOf",
      "outputs": [
        {
          "internalType": "uint256",
          "name": "",
          "type": "uint256"
        }
      ],
      "stateMutability": "view",
      "type": "function"
    },
    {
      "inputs": [],
      "name": "charityAddress",
      "outputs": [
        {
          "internalType": "address payable",
          "name": "",
          "type": "address"
        }
      ],
      "stateMutability": "view",
      "type": "function"
    },
    {
      "inputs": [
        {
          "internalType": "uint256",
          "name": "tokenId",
          "type": "uint256"
        }
      ],
      "name": "getApproved",
      "outputs": [
        {
          "internalType": "address",
          "name": "",
          "type": "address"
        }
      ],
      "stateMutability": "view",
      "type": "function"
    },
    {
      "inputs": [
        {
          "internalType": "address",
          "name": "owner",
          "type": "address"
        },
        {
          "internalType": "address",
          "name": "operator",
          "type": "address"
        }
      ],
      "name": "isApprovedForAll",
      "outputs": [
        {
          "internalType": "bool",
          "name": "",
          "type": "bool"
        }
      ],
      "stateMutability": "view",
      "type": "function"
    },
    {
      "inputs": [],
      "name": "name",
      "outputs": [
        {
          "internalType": "string",
          "name": "",
          "type": "string"
        }
      ],
      "stateMutability": "view",
      "type": "function"
    },
    {
      "inputs": [],
      "name": "owner",
      "outputs": [
        {
          "internalType": "address",
          "name": "",
          "type": "address"
        }
      ],
      "stateMutability": "view",
      "type": "function"
    },
    {
      "inputs": [
        {
          "internalType": "uint256",
          "name": "tokenId",
          "type": "uint256"
        }
      ],
      "name": "ownerOf",
      "outputs": [
        {
          "internalType": "address",
          "name": "",
          "type": "address"
        }
      ],
      "stateMutability": "view",
      "type": "function"
    },
    {
      "inputs": [
        {
          "internalType": "address",
          "name": "from",
          "type": "address"
        },
        {
          "internalType": "address",
          "name": "to",
          "type": "address"
        },
        {
          "internalType": "uint256",
          "name": "tokenId",
          "type": "uint256"
        }
      ],
      "name": "safeTransferFrom",
      "outputs": [],
      "stateMutability": "nonpayable",
      "type": "function"
    },
    {
      "inputs": [
        {
          "internalType": "address",
          "name": "from",
          "type": "address"
        },
        {
          "internalType": "address",
          "name": "to",
          "type": "address"
        },
        {
          "internalType": "uint256",
          "name": "tokenId",
          "type": "uint256"
        },
        {
          "internalType": "bytes",
          "name": "_data",
          "type": "bytes"
        }
      ],
      "name": "safeTransferFrom",
      "outputs": [],
      "stateMutability": "nonpayable",
      "type": "function"
    },
    {
      "inputs": [
        {
          "internalType": "address",
          "name": "operator",
          "type": "address"
        },
        {
          "internalType": "bool",
          "name": "approved",
          "type": "bool"
        }
      ],
      "name": "setApprovalForAll",
      "outputs": [],
      "stateMutability": "nonpayable",
      "type": "function"
    },
    {
      "inputs": [
        {
          "internalType": "bytes4",
          "name": "interfaceId",
          "type": "bytes4"
        }
      ],
      "name": "supportsInterface",
      "outputs": [
        {
          "internalType": "bool",
          "name": "",
          "type": "bool"
        }
      ],
      "stateMutability": "view",
      "type": "function"
    },
    {
      "inputs": [],
      "name": "symbol",
      "outputs": [
        {
          "internalType": "string",
          "name": "",
          "type": "string"
        }
      ],
      "stateMutability": "view",
      "type": "function"
    },
    {
      "inputs": [
        {
          "internalType": "uint256",
          "name": "tokenId",
          "type": "uint256"
        }
      ],
      "name": "tokenURI",
      "outputs": [
        {
          "internalType": "string",
          "name": "",
          "type": "string"
        }
      ],
      "stateMutability": "view",
      "type": "function"
    },
    {
      "inputs": [
        {
          "internalType": "address",
          "name": "from",
          "type": "address"
        },
        {
          "internalType": "address",
          "name": "to",
          "type": "address"
        },
        {
          "internalType": "uint256",
          "name": "tokenId",
          "type": "uint256"
        }
      ],
      "name": "transferFrom",
      "outputs": [],
      "stateMutability": "nonpayable",
      "type": "function"
    },
    {
      "stateMutability": "payable",
      "type": "receive"
    },
    {
      "inputs": [
        {
          "internalType": "address payable",
          "name": "_charityAddress",
          "type": "address"
        }
      ],
      "name": "setCharityAddress",
      "outputs": [],
      "stateMutability": "nonpayable",
      "type": "function"
    },
    {
      "inputs": [
        {
          "internalType": "string",
          "name": "tokenURI",
          "type": "string"
        }
      ],
      "name": "mintToken",
      "outputs": [
        {
          "internalType": "uint256",
          "name": "",
          "type": "uint256"
        }
      ],
      "stateMutability": "payable",
      "type": "function"
    },
    {
      "inputs": [],
      "name": "withdrawCharity",
      "outputs": [],
      "stateMutability": "payable",
      "type": "function"
    }
  ],
  "bytecode": "0x60806040523480156200001157600080fd5b5060405162001c8638038062001c86833981016040819052620000349162000179565b604080518082018252600a81526910da185c9a5d1e53919560b21b6020808301918252835180850190945260078452664348415249545960c81b9084015281519192916200008591600091620000d3565b5080516200009b906001906020840190620000d3565b505060088054336001600160a01b031991821617909155600980549091166001600160a01b03939093169290921790915550620001e6565b828054620000e190620001a9565b90600052602060002090601f01602090048101928262000105576000855562000150565b82601f106200012057805160ff191683800117855562000150565b8280016001018555821562000150579182015b828111156200015057825182559160200191906001019062000133565b506200015e92915062000162565b5090565b5b808211156200015e576000815560010162000163565b6000602082840312156200018b578081fd5b81516001600160a01b0381168114620001a2578182fd5b9392505050565b600181811c90821680620001be57607f821691505b60208210811415620001e057634e487b7160e01b600052602260045260246000fd5b50919050565b611a9080620001f66000396000f3fe6080604052600436106101185760003560e01c80636352211e116100a0578063afcf2fc411610064578063afcf2fc41461032d578063b88d4fde1461034d578063c87b56dd1461036d578063e3d670d71461038d578063e985e9c5146103ba57600080fd5b80636352211e1461029857806370a08231146102b85780638da5cb5b146102d857806395d89b41146102f8578063a22cb4651461030d57600080fd5b80630c9be46d116100e75780630c9be46d1461020f57806323b872dd1461022f57806333eba49a1461024f5780633a653e9d1461027057806342842e0e1461027857600080fd5b806301ffc9a71461015e57806306fdde0314610193578063081812fc146101b5578063095ea7b3146101ed57600080fd5b36610159576009546040516001600160a01b03909116903480156108fc02916000818181858888f19350505050158015610156573d6000803e3d6000fd5b50005b600080fd5b34801561016a57600080fd5b5061017e6101793660046116e0565b610403565b60405190151581526020015b60405180910390f35b34801561019f57600080fd5b506101a8610455565b60405161018a919061180e565b3480156101c157600080fd5b506101d56101d036600461175e565b6104e7565b6040516001600160a01b03909116815260200161018a565b3480156101f957600080fd5b5061020d6102083660046116b5565b610574565b005b34801561021b57600080fd5b5061020d61022a366004611573565b61068a565b34801561023b57600080fd5b5061020d61024a3660046115c7565b6106d6565b61026261025d366004611718565b610707565b60405190815260200161018a565b61020d6107d1565b34801561028457600080fd5b5061020d6102933660046115c7565b6108c7565b3480156102a457600080fd5b506101d56102b336600461175e565b6108e2565b3480156102c457600080fd5b506102626102d3366004611573565b610959565b3480156102e457600080fd5b506008546101d5906001600160a01b031681565b34801561030457600080fd5b506101a86109e0565b34801561031957600080fd5b5061020d610328366004611684565b6109ef565b34801561033957600080fd5b506009546101d5906001600160a01b031681565b34801561035957600080fd5b5061020d610368366004611607565b610ab4565b34801561037957600080fd5b506101a861038836600461175e565b610aec565b34801561039957600080fd5b506102626103a8366004611573565b600a6020526000908152604090205481565b3480156103c657600080fd5b5061017e6103d536600461158f565b6001600160a01b03918216600090815260056020908152604080832093909416825291909152205460ff1690565b60006001600160e01b031982166380ac58cd60e01b148061043457506001600160e01b03198216635b5e139f60e01b145b8061044f57506301ffc9a760e01b6001600160e01b03198316145b92915050565b60606000805461046490611980565b80601f016020809104026020016040519081016040528092919081815260200182805461049090611980565b80156104dd5780601f106104b2576101008083540402835291602001916104dd565b820191906000526020600020905b8154815290600101906020018083116104c057829003601f168201915b5050505050905090565b60006104f282610c63565b6105585760405162461bcd60e51b815260206004820152602c60248201527f4552433732313a20617070726f76656420717565727920666f72206e6f6e657860448201526b34b9ba32b73a103a37b5b2b760a11b60648201526084015b60405180910390fd5b506000908152600460205260409020546001600160a01b031690565b600061057f826108e2565b9050806001600160a01b0316836001600160a01b031614156105ed5760405162461bcd60e51b815260206004820152602160248201527f4552433732313a20617070726f76616c20746f2063757272656e74206f776e656044820152603960f91b606482015260840161054f565b336001600160a01b0382161480610609575061060981336103d5565b61067b5760405162461bcd60e51b815260206004820152603860248201527f4552433732313a20617070726f76652063616c6c6572206973206e6f74206f7760448201527f6e6572206e6f7220617070726f76656420666f7220616c6c0000000000000000606482015260840161054f565b6106858383610c80565b505050565b6008546001600160a01b031633146106b45760405162461bcd60e51b815260040161054f90611873565b600980546001600160a01b0319166001600160a01b0392909216919091179055565b6106e03382610cee565b6106fc5760405162461bcd60e51b815260040161054f906118c0565b610685838383610dd4565b6000662386f26fc100003410156107785760405162461bcd60e51b815260206004820152602f60248201527f4368617269747920416d6f756e74206861766520746f2062652067726561746560448201526e0e440e8d0c2dc40605c6062408aa89608b1b606482015260840161054f565b6009546001600160a01b03166000908152600a6020526040812080543492906107a2908490611911565b909155505060078054600101905560006107bb60075490565b90506107c73382610f74565b61044f81846110a7565b6008546001600160a01b031633146107fb5760405162461bcd60e51b815260040161054f90611873565b6009546001600160a01b03166108675760405162461bcd60e51b815260206004820152602b60248201527f4368617269747920416464726573732063616e206e6f7420626520746865205a60448201526a65726f204164647265737360a81b606482015260840161054f565b6009546001600160a01b03166000818152600a602052604080822054905181156108fc0292818181858888f193505050501580156108a9573d6000803e3d6000fd5b506009546001600160a01b03166000908152600a6020526040812055565b61068583838360405180602001604052806000815250610ab4565b6000818152600260205260408120546001600160a01b03168061044f5760405162461bcd60e51b815260206004820152602960248201527f4552433732313a206f776e657220717565727920666f72206e6f6e657869737460448201526832b73a103a37b5b2b760b91b606482015260840161054f565b60006001600160a01b0382166109c45760405162461bcd60e51b815260206004820152602a60248201527f4552433732313a2062616c616e636520717565727920666f7220746865207a65604482015269726f206164647265737360b01b606482015260840161054f565b506001600160a01b031660009081526003602052604090205490565b60606001805461046490611980565b6001600160a01b038216331415610a485760405162461bcd60e51b815260206004820152601960248201527f4552433732313a20617070726f766520746f2063616c6c657200000000000000604482015260640161054f565b3360008181526005602090815260408083206001600160a01b03871680855290835292819020805460ff191686151590811790915590519081529192917f17307eab39ab6107e8899845ad3d59bd9653f200f220920489ca2b5937696c31910160405180910390a35050565b610abe3383610cee565b610ada5760405162461bcd60e51b815260040161054f906118c0565b610ae684848484611132565b50505050565b6060610af782610c63565b610b5d5760405162461bcd60e51b815260206004820152603160248201527f45524337323155524953746f726167653a2055524920717565727920666f72206044820152703737b732bc34b9ba32b73a103a37b5b2b760791b606482015260840161054f565b60008281526006602052604081208054610b7690611980565b80601f0160208091040260200160405190810160405280929190818152602001828054610ba290611980565b8015610bef5780601f10610bc457610100808354040283529160200191610bef565b820191906000526020600020905b815481529060010190602001808311610bd257829003601f168201915b505050505090506000610c0d60408051602081019091526000815290565b9050805160001415610c20575092915050565b815115610c52578082604051602001610c3a9291906117a2565b60405160208183030381529060405292505050919050565b610c5b84611165565b949350505050565b6000908152600260205260409020546001600160a01b0316151590565b600081815260046020526040902080546001600160a01b0319166001600160a01b0384169081179091558190610cb5826108e2565b6001600160a01b03167f8c5be1e5ebec7d5bd14f71427d1e84f3dd0314c0f7b2291e5b200ac8c7c3b92560405160405180910390a45050565b6000610cf982610c63565b610d5a5760405162461bcd60e51b815260206004820152602c60248201527f4552433732313a206f70657261746f7220717565727920666f72206e6f6e657860448201526b34b9ba32b73a103a37b5b2b760a11b606482015260840161054f565b6000610d65836108e2565b9050806001600160a01b0316846001600160a01b03161480610da05750836001600160a01b0316610d95846104e7565b6001600160a01b0316145b80610c5b57506001600160a01b0380821660009081526005602090815260408083209388168352929052205460ff16610c5b565b826001600160a01b0316610de7826108e2565b6001600160a01b031614610e4f5760405162461bcd60e51b815260206004820152602960248201527f4552433732313a207472616e73666572206f6620746f6b656e2074686174206960448201526839903737ba1037bbb760b91b606482015260840161054f565b6001600160a01b038216610eb15760405162461bcd60e51b8152602060048201526024808201527f4552433732313a207472616e7366657220746f20746865207a65726f206164646044820152637265737360e01b606482015260840161054f565b610ebc600082610c80565b6001600160a01b0383166000908152600360205260408120805460019290610ee590849061193d565b90915550506001600160a01b0382166000908152600360205260408120805460019290610f13908490611911565b909155505060008181526002602052604080822080546001600160a01b0319166001600160a01b0386811691821790925591518493918716917fddf252ad1be2c89b69c2b068fc378daa952ba7f163c4a11628f55a4df523b3ef91a4505050565b6001600160a01b038216610fca5760405162461bcd60e51b815260206004820181905260248201527f4552433732313a206d696e7420746f20746865207a65726f2061646472657373604482015260640161054f565b610fd381610c63565b156110205760405162461bcd60e51b815260206004820152601c60248201527f4552433732313a20746f6b656e20616c7265616479206d696e74656400000000604482015260640161054f565b6001600160a01b0382166000908152600360205260408120805460019290611049908490611911565b909155505060008181526002602052604080822080546001600160a01b0319166001600160a01b03861690811790915590518392907fddf252ad1be2c89b69c2b068fc378daa952ba7f163c4a11628f55a4df523b3ef908290a45050565b6110b082610c63565b6111135760405162461bcd60e51b815260206004820152602e60248201527f45524337323155524953746f726167653a2055524920736574206f66206e6f6e60448201526d32bc34b9ba32b73a103a37b5b2b760911b606482015260840161054f565b6000828152600660209081526040909120825161068592840190611464565b61113d848484610dd4565b6111498484848461123d565b610ae65760405162461bcd60e51b815260040161054f90611821565b606061117082610c63565b6111d45760405162461bcd60e51b815260206004820152602f60248201527f4552433732314d657461646174613a2055524920717565727920666f72206e6f60448201526e3732bc34b9ba32b73a103a37b5b2b760891b606482015260840161054f565b60006111eb60408051602081019091526000815290565b9050600081511161120b5760405180602001604052806000815250611236565b806112158461134a565b6040516020016112269291906117a2565b6040516020818303038152906040525b9392505050565b60006001600160a01b0384163b1561133f57604051630a85bd0160e11b81526001600160a01b0385169063150b7a02906112819033908990889088906004016117d1565b602060405180830381600087803b15801561129b57600080fd5b505af19250505080156112cb575060408051601f3d908101601f191682019092526112c8918101906116fc565b60015b611325573d8080156112f9576040519150601f19603f3d011682016040523d82523d6000602084013e6112fe565b606091505b50805161131d5760405162461bcd60e51b815260040161054f90611821565b805181602001fd5b6001600160e01b031916630a85bd0160e11b149050610c5b565b506001949350505050565b60608161136e5750506040805180820190915260018152600360fc1b602082015290565b8160005b81156113985780611382816119bb565b91506113919050600a83611929565b9150611372565b60008167ffffffffffffffff8111156113c157634e487b7160e01b600052604160045260246000fd5b6040519080825280601f01601f1916602001820160405280156113eb576020820181803683370190505b5090505b8415610c5b5761140060018361193d565b915061140d600a866119d6565b611418906030611911565b60f81b81838151811061143b57634e487b7160e01b600052603260045260246000fd5b60200101906001600160f81b031916908160001a90535061145d600a86611929565b94506113ef565b82805461147090611980565b90600052602060002090601f01602090048101928261149257600085556114d8565b82601f106114ab57805160ff19168380011785556114d8565b828001600101855582156114d8579182015b828111156114d85782518255916020019190600101906114bd565b506114e49291506114e8565b5090565b5b808211156114e457600081556001016114e9565b600067ffffffffffffffff8084111561151857611518611a16565b604051601f8501601f19908116603f0116810190828211818310171561154057611540611a16565b8160405280935085815286868601111561155957600080fd5b858560208301376000602087830101525050509392505050565b600060208284031215611584578081fd5b813561123681611a2c565b600080604083850312156115a1578081fd5b82356115ac81611a2c565b915060208301356115bc81611a2c565b809150509250929050565b6000806000606084860312156115db578081fd5b83356115e681611a2c565b925060208401356115f681611a2c565b929592945050506040919091013590565b6000806000806080858703121561161c578081fd5b843561162781611a2c565b9350602085013561163781611a2c565b925060408501359150606085013567ffffffffffffffff811115611659578182fd5b8501601f81018713611669578182fd5b611678878235602084016114fd565b91505092959194509250565b60008060408385031215611696578182fd5b82356116a181611a2c565b9150602083013580151581146115bc578182fd5b600080604083850312156116c7578182fd5b82356116d281611a2c565b946020939093013593505050565b6000602082840312156116f1578081fd5b813561123681611a44565b60006020828403121561170d578081fd5b815161123681611a44565b600060208284031215611729578081fd5b813567ffffffffffffffff81111561173f578182fd5b8201601f8101841361174f578182fd5b610c5b848235602084016114fd565b60006020828403121561176f578081fd5b5035919050565b6000815180845261178e816020860160208601611954565b601f01601f19169290920160200192915050565b600083516117b4818460208801611954565b8351908301906117c8818360208801611954565b01949350505050565b6001600160a01b038581168252841660208201526040810183905260806060820181905260009061180490830184611776565b9695505050505050565b6020815260006112366020830184611776565b60208082526032908201527f4552433732313a207472616e7366657220746f206e6f6e20455243373231526560408201527131b2b4bb32b91034b6b83632b6b2b73a32b960711b606082015260800190565b6020808252602d908201527f4f6e6c79204f776e6572206f6620436f6e74726163742063616e2063616c6c2060408201526c3a3434b990233ab731ba34b7b760991b606082015260800190565b60208082526031908201527f4552433732313a207472616e736665722063616c6c6572206973206e6f74206f6040820152701ddb995c881b9bdc88185c1c1c9bdd9959607a1b606082015260800190565b60008219821115611924576119246119ea565b500190565b60008261193857611938611a00565b500490565b60008282101561194f5761194f6119ea565b500390565b60005b8381101561196f578181015183820152602001611957565b83811115610ae65750506000910152565b600181811c9082168061199457607f821691505b602082108114156119b557634e487b7160e01b600052602260045260246000fd5b50919050565b60006000198214156119cf576119cf6119ea565b5060010190565b6000826119e5576119e5611a00565b500690565b634e487b7160e01b600052601160045260246000fd5b634e487b7160e01b600052601260045260246000fd5b634e487b7160e01b600052604160045260246000fd5b6001600160a01b0381168114611a4157600080fd5b50565b6001600160e01b031981168114611a4157600080fdfea2646970667358221220eeee3585108e400ee5072f9ddb071953b945949e2b8b4ec5108ef05ef8ae95ee64736f6c63430008040033",
  "immutableReferences": {},
  "source": "// SPDX-License-Identifier: MIT\r\npragma solidity 0.8.4;\r\n\r\nimport \"@openzeppelin/contracts/token/ERC721/extensions/ERC721URIStorage.sol\";\r\nimport \"@openzeppelin/contracts/utils/Counters.sol\";\r\n\r\ncontract CharityNft is ERC721URIStorage {\r\n    using Counters for Counters.Counter;\r\n    Counters.Counter private _tokenIds;\r\n\r\n    address public owner;\r\n    address payable public charityAddress;\r\n\r\n    mapping(address => uint) public balance;\r\n\r\n    modifier _ownerOnly() {\r\n        require(msg.sender == owner, \"Only Owner of Contract can call this Function\");\r\n        _;\r\n    }\r\n\r\n    constructor(address payable _charityAddress) ERC721(\"CharityNFT\", \"CHARITY\") {\r\n        owner = msg.sender;\r\n        charityAddress = _charityAddress;\r\n    }\r\n\r\n    function setCharityAddress(address payable _charityAddress) _ownerOnly public {\r\n        charityAddress = _charityAddress;\r\n    }\r\n\r\n    function mintToken(string memory tokenURI) public payable returns (uint256) {\r\n        require(msg.value >= (0.01 * (10**18)), \"Charity Amount have to be greater than 0.01 ETH\");\r\n        balance[charityAddress] += msg.value;\r\n        _tokenIds.increment();\r\n        uint256 newItemId = _tokenIds.current();\r\n        _mint(msg.sender, newItemId);\r\n        _setTokenURI(newItemId, tokenURI);\r\n        return newItemId;\r\n    }\r\n\r\n    function withdrawCharity() _ownerOnly public payable {\r\n        require(charityAddress != address(0x0), \"Charity Address can not be the Zero Address\");\r\n        charityAddress.transfer(balance[charityAddress]);\r\n        balance[charityAddress] = 0;\r\n    }\r\n\r\n    // This fallback function will send all Ether to given Charity Address\r\n    receive() external payable {\r\n        charityAddress.transfer(msg.value);\r\n    }\r\n}\r\n",
  "sourcePath": "C:\\Users\\stein\\Downloads\\MyNft\\MoralisReactUserAdminDApp-main\\src\\contracts\\CharityNft.sol",
  "compiler": {
    "name": "solc",
    "version": "0.8.4+commit.c7e474f2.Emscripten.clang"
  },
  "schemaVersion": "3.4.3",
  "updatedAt": "2021-08-29T10:57:54.413Z",
  "devdoc": {
    "kind": "dev",
    "methods": {
      "approve(address,uint256)": {
        "details": "See {IERC721-approve}."
      },
      "balanceOf(address)": {
        "details": "See {IERC721-balanceOf}."
      },
      "getApproved(uint256)": {
        "details": "See {IERC721-getApproved}."
      },
      "isApprovedForAll(address,address)": {
        "details": "See {IERC721-isApprovedForAll}."
      },
      "name()": {
        "details": "See {IERC721Metadata-name}."
      },
      "ownerOf(uint256)": {
        "details": "See {IERC721-ownerOf}."
      },
      "safeTransferFrom(address,address,uint256)": {
        "details": "See {IERC721-safeTransferFrom}."
      },
      "safeTransferFrom(address,address,uint256,bytes)": {
        "details": "See {IERC721-safeTransferFrom}."
      },
      "setApprovalForAll(address,bool)": {
        "details": "See {IERC721-setApprovalForAll}."
      },
      "supportsInterface(bytes4)": {
        "details": "See {IERC165-supportsInterface}."
      },
      "symbol()": {
        "details": "See {IERC721Metadata-symbol}."
      },
      "tokenURI(uint256)": {
        "details": "See {IERC721Metadata-tokenURI}."
      },
      "transferFrom(address,address,uint256)": {
        "details": "See {IERC721-transferFrom}."
      }
    },
    "version": 1
  },
  "userdoc": {
    "kind": "user",
    "methods": {},
    "version": 1
  }
}